:020000040800F2
:1000000018080020A9010008833D0008CD2F000832
:100010006D3D000835150008D940000800000000BB
:10002000000000000000000000000000D53D0008B6
:100030004515000800000000853D0008D73D000878
:10004000C3010008C3010008C3010008C301000880
:10005000C3010008C3010008C3010008C301000870
:10006000C3010008C3010008C301000839150008D6
:10007000C3010008C3010008C3010008C301000850
:10008000C3010008C3010008C3010008C301000840
:10009000C3010008C3010008C3010008C301000830
:1000A000C3010008C3010008C3010008C301000820
:1000B000C3010008C3010008C3010008C301000810
:1000C000C3010008C3010008C3010008C301000800
:1000D000C3010008C3010008C3010008C3010008F0
:1000E000C3010008C3010008C301000800F002F8C2
:1000F00000F04AF80AA090E8000C82448344AAF178
:100100000107DA4501D100F03FF8AFF2090EBAE875
:100110000F0013F0010F18BFFB1A43F0010318473B
:100120003854000058540000103A24BF78C878C1F1
:10013000FAD8520724BF30C830C144BF04680C60ED
:10014000704700000023002400250026103A28BF35
:1001500078C1FBD8520728BF30C148BF0B60704739
:10016000662904F08D86642900F07A8000207047AB
:100170001FB500F0FDFB04000020002104F0D2F9BF
:10018000E0601FBD10B510BD00F0F2FC1146FFF796
:10019000EFFF03F0CDFF00F010FD03B4FFF7F2FF17
:1001A00003BC00F053FD00000948804709480047A0
:1001B000FEE7FEE7FEE7FEE7FEE7FEE7FEE7FEE717
:1001C000FEE7FEE704480549054A064B7047000074
:1001D000533E0008ED000008180200201808002017
:1001E00018040020180400200FB41CB5074B06AA01
:1001F0007B4469460090059800F0A1FB0020694609
:1002000000F0B0FB1CBC5DF814FB0000710700009F
:1002100070B5044685690068C10601D5302600E046
:100220002026C00707D070BDD4E901213046904791
:10023000206A401C20626D1EF6D570BD70B5044664
:1002400085690078C00707D170BDD4E9012120205D
:100250009047206A401C20626D1EF6D570BD0000DC
:100260002DE9F0410646002410687529314616A58F
:1002700010D0AFF30080002802DA404213A507E057
:1002800031688A0701D512A502E0490704D511A5F6
:10029000012401E0AFF3008000210A2206F12407C7
:1002A00009E0B0FBF2FCB0FBF2F302FB1C003030C3
:1002B00078541846491C0028F3D123462A46304674
:1002C000BDE8F04100F0CEB8000000002D000000B5
:1002D0002B000000200000002DE9F05F8946044655
:1002E0004FF0000ADFF824B1FB44C0F820A02046FC
:1002F000E168884700287DD0252806D0D4E901216F
:100300009047206A401C2062F1E700255F462046A6
:10031000E16888472028064607DB312E05D2B81948
:1003200010F8200C08B10543F1E7A80701D525F026
:100330000405C4F81CA00027C4F818A02A2E09D070
:10034000304603F0EEFE38B304EB8708303EC8F8C1
:10035000186019E059F8041B204604EB87029161EC
:10036000E1688847012F064618D1E069002820DAA5
:1003700025F020051DE0D8F8180000EB800006EB02
:1003800040003038C8F818002046E1688847064623
:1003900003F0C7FE0028EED1012F0AD02E2E08D17F
:1003A0002046E16888477F1C0646022F45F020055D
:1003B000C4DBA069002803DA404245F00105A061D2
:1003C000E80701D025F01005A6B1A6F141001928D3
:1003D00002D8203645F400654A463146204625605D
:1003E0004D46FFF7BDFE60B1012807D0ED1D25F099
:1003F000070000E007E000F1080978E705F10409CB
:1004000075E730467AE7206ABDE8F09FC4510000E6
:100410004FF0000200B5134694469646203922BF9D
:10042000A0E80C50A0E80C50B1F12001BFF4F7AFE8
:10043000090728BFA0E80C5048BF0CC05DF804EBCA
:10044000890028BF40F8042B08BF704748BF20F838
:10045000022B11F0804F18BF00F8012B7047704736
:10046000704770472DE9F0470D469946924604467D
:1004700000F124080168880604D5E06921F0100124
:10048000216000E00120A84201DD471B00E00027B9
:10049000A1697A1902EB0900081AA0612078C00648
:1004A00002D42046FFF7B4FE002608E0D4E901217B
:1004B0001AF806009047206A401C761C20624E45C0
:1004C000F4DB2078C0060AD52046FFF7A1FE06E03F
:1004D000D4E9012130209047206A401C2062381E58
:1004E000A7F10107F4DC07E0D4E9012118F80500C1
:1004F0009047206A401C2062281EA5F10105F3DC0C
:100500002046FFF79BFE2078000602D50220BDE8BA
:10051000F0870120FBE770472DE9FF4F0C461E4690
:100520004FF0FF378BB0D2E90001DDF860800A9010
:100530008A46C1F30A5505B93D46002108464FF0E9
:100540000000BAF1000F00F4400005DA00EB800073
:100550004FF4400101EA50004FEA9059B9F1010F00
:1005600000DDB9460A9850EA4A000ED044F6105011
:10057000A5F2FF3545432F14B8F1000F1ED0754288
:10058000291E1EDDC9F100021CE0B8F1010F4FF079
:10059000000001D0302103E0F24305E02154401C6B
:1005A000B042FBDB30460022002121540B99C1F8F8
:1005B0000880C1E900200FB0BDE8F08FBD1B6D1CA5
:1005C000DEE74A4600DA694206A800F05BFA06ABAD
:1005D00093E8070003AB83E8070050460A9900F050
:1005E0003CFB8DE80700A0F500501F3800900398F1
:1005F000002D0ADD42F21F014A460844002303A9E8
:100600000390684600F0A5FD09E0A0F500504A46B9
:100610001F38002303A90390684600F0AFFD8DE862
:1006200007000004000C03D04FF0FF30410800E049
:100630001046B8F1000F03D00022009215461EE0CC
:10064000751E05D400F098F9303262556D1EF9D54B
:10065000B3460122084302D000227F1C04E0207828
:10066000302801D100227F1E002A099784D01DE086
:10067000112D07DA00F080F9303262556D1C50EA16
:100680000102F5D1084302D00098C8B10EE0002164
:10069000681E05E0235C625C63542254401E491CC2
:1006A0008142F7DBAB46A81B401E0990002004F8EE
:1006B0000B000B98099AC0F80880C0E9002B7AE774
:1006C00011264FF0000857E72DE9F04F8846044601
:1006D000D21D22F0070191B0D1E90001CDE90A0154
:1006E00003F0FBFC02460B98C00F01D02D2007E061
:1006F0002068810701D52B2002E0202101EAC000FB
:10070000032A099001D0072A05DB0346414620460B
:1007100000F078F90BE12078800601D5E06900E06F
:100720000620B8F1650F814606D0B8F1660F18D0E3
:10073000B8F1670F70D131E00020B9F1110F0090CE
:1007400001DB112301E009F101030AAA01A90CA8A8
:10075000FFF7E2FEDDE90C70002609F10105834692
:1007600047E001204B4600904FF000470AAA01A93C
:100770000CA8FFF7D1FEDDE90DB00C995D4600260F
:1007800010B909F101000D18B9EB050003D4C0F14F
:10079000FF3609F10105A5EB09002BE0B9F1010FC6
:1007A00001DA4FF001090020B9F1110F009048461D
:1007B00001DD112300E003460AAA01A90CA8FFF7F6
:1007C000ABFEDDE90C704D4600268346207800071D
:1007D0000AD4AB4500DA5D4601A8012D04DD4119BC
:1007E00011F8011C302907D04F4502DA17F1040F28
:1007F00004DA012082460FE06D1EEEE7002F02DCD6
:10080000ED1B3E4403E0781CA84200DD7D1CB81BB4
:1008100000F1010A4FF000472078000703D4AA45F1
:1008200001DB4FF0FF3A0021B7F1004F0DF1430813
:100830008DF8431024D002202B23002F01DA7F42B1
:100840002D230A21021EA0F1010000DC5FB197FBFD
:10085000F1FC97FBF1F201FB1C7C17460CF1300C0C
:1008600008F801CDEEE7A8F1010003702188090521
:1008700001D5452100E06521A0F1010800F8011C27
:1008800009980FA9A1EB0807FF1D00B1012041192C
:1008900001EBEA70A1693844081A401EA061207873
:1008A000C00602D42046FFF7B3FC099828B1D4E96A
:1008B00001219047206A401C20622078C00622D582
:1008C0002046FFF7A5FC1EE0002E04DBB34502DD49
:1008D00001A8805D00E03020D4E901219047206A22
:1008E000401C2062761CAAF101005FEA000A0AD1CE
:1008F00000F03EF8C0680168405CD4E901219047EF
:10090000206A401C2062281EA5F10105DCDC07E0FE
:10091000D4E9012118F8010B9047206A401C20629D
:10092000381EA7F10107F3DC2046FFF787FC032000
:1009300011B041E601694A1C02610878704700B5B0
:100940008FB0CDE901310021059105497944CDE908
:10095000031011466846FFF7BFFC0FB000BD000052
:10096000E5FFFFFF0A6802F8010B0A60704700000C
:1009700000487047D801002030B5B0F10A024FEAB4
:10098000900E71F100034EEA817EB0EB0E0061EB38
:1009900091014FEA101E4EEA017E10EB0E0041EB72
:1009A00011114FEA102E4EEA016E10EB0E0041EBD2
:1009B00011214FEA104E4EEA014E10EB0E0041EBB2
:1009C0001141401841F100014FEAD00040EA417066
:1009D0004FEAD10110EB80054FEA810444EA90749C
:1009E00044EB01046D1944EB0404521BA3414FF086
:1009F000000348BF0A3200D530BD401C41F1000160
:100A000030BD00002DE9F0411F4604460326016871
:100A1000072A01F4006004DB08B116A505E016A55D
:100A200003E008B115A500E015A521F01000206035
:100A3000A069C01EA0610FB1401EA0612046FFF753
:100A4000E7FB4FB1D4E9012138469047206A401CAA
:100A50002062C01C206206E0206AFAE7D4E9012186
:100A600015F8010B9047761EF8D22046FFF7E6FBFB
:100A7000BDE8F0814E414E006E616E00494E460069
:100A8000696E66002DE9F047814616468AB0354802
:100A900078440DC88DE80D0032487844801C03ACC2
:100AA0000DC884E80D0041F69B300844372190FBC7
:100AB000F1F290FBF1F5A5F1800501FB12041B3C5E
:100AC00002D56442012000E00020DFF898A08046B3
:100AD0000027FA44AAF1BE0A0EE0E0070AD0324627
:100AE000684607EB470101230AEB810100F046FB52
:100AF0008DE8070064107F1C002CEED1194F7F4455
:100B0000AE3F19E0E80715D007EB04100DF1180A05
:100B100090E80E008AE80E00C068F04201D19819F2
:100B200008903246012306A903A800F027FB03AB77
:100B300083E807006D10641C002DE3D14FF0010322
:100B400032466946B8F1000F03A802D000F001FB5D
:100B500001E000F013FBC9E90001C9F808200AB060
:100B6000BDE8F087AC4A000000487047B80100209B
:100B70007546FFF7F9FFAE4605006946534620F07B
:100B80000700854618B020B5FFF71CFBBDE82040E4
:100B90004FF000064FF000074FF000084FF0000B39
:100BA00021F00701AC46ACE8C009ACE8C009ACE8EC
:100BB000C009ACE8C0098D46704710B50446AFF3D4
:100BC00000802046BDE81040FFF7E7BA4FF0013C37
:100BD00050F8042B51F8043B9A4221D1A2EB0C03AC
:100BE000934313EACC1317D150F8042B51F8043B6C
:100BF0009A4215D1A2EB0C03934313EACC130BD109
:100C000050F8042B51F8043B9A4209D1A2EB0C0393
:100C1000934313EACC13DBD04FF00000704700BFC2
:100C2000D01A01BAB1FA81F101F0180122FA01F0EB
:100C3000CB40C1F12001DBB2C0B2C01A2CFA01F3E3
:100C4000D11A914311EAC311E6D170470149182026
:100C5000ABBEFEE72600020070475FEA400C08BF0B
:100C600091F0000F4FEA8C234FEAC12243EA515121
:100C70004FEA1C5018BF00F5F0404FEA300018BF93
:100C800041F000415FEA6C5C00F02980BCF1FF3F5D
:100C900008BF40F080407047130C06BF12044FF0AD
:100CA000100C4FF0000C130E04BF12020CF1080CD4
:100CB000130F04BF12010CF1040C930F04BF920038
:100CC0000CF1020CD30F04BF52000CF1010C1146C1
:100CD0004FF00002A0F11F00A0EB0C00704711F0D4
:100CE000004F08BF704731F000413FF4D5AF0B0C07
:100CF00006BF09044FF0100C4FF0000C0B0E04BFA0
:100D000009020CF1080C0B0F04BF09010CF1040CD3
:100D10008B0F04BF89000CF1020CCB0F04BF4900FC
:100D20000CF1010CCCF12003A0EB0C0022FA03F330
:100D300002FA0CF241EA030100F10100704720F0D1
:100D40007F4C80EA030023F07F47ACEB070303F5F9
:100D50007C5300F0004003F1FF032DE980494FEA86
:100D6000154B09B44FEA144325EA0B4E24EA034815
:100D70000FF2042606EB132749083E785FEA320299
:100D800003FB0667C7F5000707FB06F64FEA543773
:100D90004FEAD64606F1020607FB066CCCF1005C72
:100DA0004FEA1C472CEA074C07FB06F40CFB06F540
:100DB00004EB15464FEA961634BF00204FF0004072
:100DC0004FEAD13706FB07FC4FEA1C4C0CFB0BF734
:100DD000D21B03FB0CF761EB07010CFB0EF7B0EB2A
:100DE000074072EB17420CFB08F734BFA2EB074237
:100DF000B2EB074261EB17414FEA0C444FEA91070F
:100E000006FB07FC4FEA1C4C0CFB0BF7B0EBC74092
:100E100072EB573203FB0CF734BFA2EBC742B2EBC5
:100E2000C74261EB57310CFB0EF7B0EBC70072EB1A
:100E300057720CFB08F734BFA2EBC702B2EBC70234
:100E400061EB5771039F4FEA816141EA921104EB14
:100E5000CC044FEAD1374FEA826206FB07FC42EA34
:100E600090124FEA80604FEA1C4C0CFB0BF7D21B30
:100E700003FB0CF761EB07010CFB0EF7B0EB07402F
:100E800072EB17420CFB08F734BFA2EB0742B2EB40
:100E9000074261EB17414FEA8C554FEA910704EB8B
:100EA0009C2406FB07FC4FEA1C4C0CFB0BF7B0EB39
:100EB000C74072EB573203FB0CF734BFA2EBC742BB
:100EC000B2EBC74261EB57310CFB0EF7B0EBC7003A
:100ED00072EB57720CFB08F734BFA2EBC702B2EB00
:100EE000C70261EB577115EB4C254FEA816141EA6E
:100EF00092114FEA82624FEAD13742EA901206FB22
:100F000007FC44F100044FEA80604FEA1C4C0CFBE4
:100F10000BF7D21B03FB0CF761EB07010CFB0EF781
:100F2000B0EB074072EB17420CFB08F734BFA2EBA3
:100F30000742B2EB074261EB174115EB1C154FEA74
:100F4000813141EA92414FEA823242EA90424FEACD
:100F500080304FEA0C7644F1000448EA03434EEA3D
:100F60000B484FF0000EB2EB080C71EB030724BFE7
:100F7000624639464EEB0E0E4FF0000B0018524100
:100F800049414BEB0B0BB2EB080C71EB03077BF108
:100F9000000B24BF624639464EEB0E0E4FF0000B9D
:100FA0000018524149414BEB0B0BB2EB080C71EBB3
:100FB00003077BF1000B24BF624639464EEB0E0E51
:100FC00051EA020718BF46F0010616EB0E7655F1FE
:100FD000000254F1000103D5BDE88901BDE8008895
:100FE000BDE88901BDE80048B619524141EB010155
:100FF000A3F10103704780807F7E7D7C7B7A7978C6
:10100000777676757473727171706F6E6E6D6C6CCD
:101010006B6A6A696868676666656464636362616F
:101020006160605F5F5E5E5D5D5C5C5B5B5A5A59F0
:10103000595858575756565555555454535352525C
:101040005251515050504F4F4F4E4E4D4D4D4C4CB4
:101050004C4B4B4B4A4A4A494949484848474747FD
:10106000474646464545454444444443434343423A
:10107000424242414141002B9C4630D477002BD064
:101080001CB54FEA370703B44FF010004FF01001C2
:10109000BAF1000F06D0BCF1000FDCBF40F0080031
:1010A00040F008014FF000000FBCBDE810400BF10C
:1010B000010BBBF1010F08BF5FEA170722BF12F156
:1010C000010211F101014FF0004143F1000300F072
:1010D000004043EA00007047F9D35708D0E746EADA
:1010E000064613F1400F4FEA16461FDD13F1200F9D
:1010F000DFBF16430A46002120335B42BED0C3F156
:10110000200746EA064602FA07F74FEA164646EA7D
:101110000706C3F1200722FA03F201FA07F721FAC2
:1011200003F14FF0000342EA0702A7E746EA02068E
:1011300046EA06464FEA164646EA0106BCBF46EABC
:101140000646360C4FF000034FF000024FF000014E
:1011500094E72DE9804C9A46934670B491E83800A4
:1011600007C831EA400C48BF34EA430C03D5FFF707
:10117000E6FDFFF780FFF0BCBDE8008C2DE9804C58
:101180009A46934670B491E8380007C810F0804F33
:1011900008BF13F0804F03D100F005F8FFF76BFF95
:1011A000F0BCBDE8008C20F07F4780EA030023F00C
:1011B0007F4C07EB0C03A3F57C5300F00040A3F138
:1011C000FE0392F0000F00F0B38095F0000F00F0E6
:1011D00077802DE901494FEA11404FEA144621EA90
:1011E000004800FB06FC24EA064708FB06F607FB5E
:1011F00008F800FB07F718EB06484CEB164C4FEAD3
:10120000124B18EB07484FEA15464CEB174022EA01
:101210000B4E0BFB06FC25EA06470EFB06F607FB0A
:101220000EFE0BFB07F71EEB064E4CEB164C4FF079
:1012300000061EEB074E4CEB174B18EB0B0840F16A
:10124000000018EB0E0B58EB000840F100008F1A5D
:101250004FF000013CBFC943661B14BFB5EB040C43
:1012600000213CBFC943F61B4FEA17444EEA8E0EDD
:1012700027EA04454FEA1C4704FB07622CEA074CA7
:1012800005FB07F70CFB05F604FB0CFC16EB074609
:1012900042EB174216EB0C4642EB1C421BEB0606D8
:1012A00058EB0202414146EA9E0601D5BDE801899C
:1012B000B619524141EB0101A3F10103BDE80189D7
:1012C0004FEA14454FEA114724EA054621EA074C44
:1012D00005FB07F406FB07F70CFB06F105FB0CFC0E
:1012E00011EB074144EB17444FEA124711EB0C4155
:1012F00044EB1C4422EA074C05FB07F206FB07F708
:101300000CFB06F605FB0CFC16EB074642EB1742FE
:1013100016EB0C4642EB1C456A1854F1000148BF1D
:101320007047B619524141EB0101A3F10103704727
:1013300095F0000F37D04FEA11424FEA144721EAE7
:10134000024624EA074C02FB07F106FB07F70CFBF9
:1013500006F402FB0CFC14EB074441EB17414FEA87
:10136000154714EB0C4441EB1C4125EA074C02FBEA
:1013700007F506FB07F70CFB06F602FB0CFC16EB69
:10138000074645EB174516EB0C4645EB1C42121978
:1013900051F1000148BF7047B619524141EB0101BC
:1013A000A3F1010370474FEA14454FEA114724EABD
:1013B000054621EA074C05FB07F106FB07F70CFB86
:1013C00006F24FF0000605FB0CFC12EB074241EB66
:1013D000174112EB0C4251EB1C4148BF7047921869
:1013E00041EB0101A3F101037047000070B5044611
:1013F00000688168C943C90717D1816821F00101DC
:10140000816000F05FFD05460AE000BF00F05AFD74
:10141000401B022804D920688068C043C00706D05A
:1014200020688068C043C007F0D0002070BDA06A6B
:1014300040F01000A062E06A40F00100E06201208C
:1014400070BD0000F8B5002604460096006881686B
:10145000C943C9072DD0816841F001018160164858
:1014600016490068B0FBF1F000E0401E0090002833
:10147000FBD100F027FD054616E000BF00F022FD7D
:10148000401B022810D920688068C043C0070BD0D9
:10149000A06A40F01000A062E06A40F00100E06243
:1014A00084F824600120F8BD20688068C043C0072C
:1014B000E4D10020F8BD00002400002040420F00CD
:1014C000FEB50E460025012107280BD2DFE800F00B
:1014D0000406081315171900002002E0009101E02E
:1014E000022000900720CDE901106946104800F065
:1014F00099F8002417E00320F3E70420F1E7052022
:10150000EFE70620EDE70A4800F082FA1E210848BE
:1015100000F0E0F9064800F003F90544044800F043
:10152000D7FA641CE4B2B442EDD3B5FBF6F0FEBDCD
:1015300050000020FEE70000014800F0E3BA000080
:1015400080000020704772B6FEE70000F8B5002565
:101550000446009590F8240001280BD0012084F85F
:1015600024002046FFF742FF2046FFF76BFF0600EE
:1015700002D050E00220F8BDA06A20F4885040F06C
:101580000200A062022000F0F5FF25490968B1FBC6
:10159000F0F0400000E0401E00900028FBD12068E1
:1015A000816841F00801816000F08CFC074608E08A
:1015B00000F088FCC01B0A2803D920688068000757
:1015C00015D4206880680007F2D42068816841F053
:1015D0000401816000F076FC074612E000F072FC26
:1015E000C01B0A280DD920688068400709D5A06A69
:1015F00020F0020040F01000A06284F82450012086
:10160000F8BD206880684007E8D4A06A20F0020096
:1016100040F00100A06284F824503046F8BD00007C
:1016200024000020F8B50024009490F824202546DA
:10163000012A12D0012280F824204A681F23072A99
:101640000DD20668776B521E02EB820293409F43D5
:101650000B6893401F43776319E00220F8BD0668CA
:101660000D2A0AD2376BD21F02EB820293409F43AE
:101670000B6893401F43376309E0F76A0D3A02EBAA
:10168000820293409F430B6893401F43F7620A68AE
:10169000072306680A2A0AD3F7680A3A02EB4202CD
:1016A00093409F438B6893401F43F76008E037697E
:1016B00002EB420293409F438B6893401F43376184
:1016C0000A68102A01D0112A20D1124B02689A42CE
:1016D00017D193681B0219D4936843F400039360F5
:1016E0000968102912D10C490C4A0968B1FBF2F1C2
:1016F00001EB8101490000E0491E00910029FBD166
:1017000004E0816A41F020018162012480F82450C4
:101710002046F8BD002401402400002040420F0074
:101720000068C06C704700002DE9F0414FF00007E1
:1017300004003D467ED0A06A002628B9E66284F8FF
:101740002460204600F07EF82046FFF74FFEA16A95
:10175000C90600D420B1A06A40F01000A06269E080
:10176000A16A21F4885141F00201A1626268E16935
:10177000237B0A4347EA43010A43A1684FF4807779
:10178000B94209D0012907D05FF0000194F814C0D4
:10179000BCF1010F02D00AE03946F7E7F3B1A36AC2
:1017A00043F02003A362E36A43F00103E36223688A
:1017B000D3F804C02CF4694C4CEA010CC3F804C003
:1017C00021688B68DFF870C003EA0C0313438B6059
:1017D000A168B9420BD0012909D00CE0DFF85CC048
:1017E000A3690CEB43330B4343F40061DFE7218A29
:1017F0000D05A5F580152168CB6A23F470032B43F2
:10180000CB62216889680E4B1940914208D1E6628B
:10181000A16A21F0020141F00101A162BDE8F0815D
:10182000A06A20F0020040F01000A062E06A40F0E0
:101830000100E0620120F1E7FDF7E1FF00E0FFFFBA
:10184000FE0E1FFF70B586B0002506460095019577
:101850000295039500681A4988422ED11949886972
:1018600040F400708861886900F400700490886911
:1018700040F0040088618869694600F00400049023
:1018800033200090032001900F4800F025FA104CFF
:101890000E48C4E900058020C4E9025040002061E0
:1018A000800060612020C4E90605204600F0D4F9DC
:1018B00008B1FFF748FE3462666206B070BD0000F2
:1018C00000240140001002400008014008000240CE
:1018D000800000202DE9F84300270D4604460097BC
:1018E00000F0F0FA804620688168C90508D5A06A32
:1018F00040F02000A06284F824700120BDE8F88345
:101900004168C90503D4C06A10F4700F2AD00220C0
:1019100000F030FE3B490968B1FBF0F6206803692E
:1019200039490B424FEA61014FEAA1121FD1C36846
:101930004FEA611C13EA0C0F19D103690B4225D140
:10194000C068104222D1142023E0681C0AD02DB1B7
:1019500000F0B8FAA0EB0800A84203D9206800689C
:10196000800725D5206800688007EED52DE0036943
:101970000B4202D1C168114206D0026923490A42D2
:1019800006D1C068084203D1542002E0292000E0BB
:10199000FC204643009816E0681C11D02DB100F0E1
:1019A00091FAA0EB0800A8420AD90098B04207D2E9
:1019B000A06A40F00400A06284F8247003209DE730
:1019C0000098401C0090B042E6D321686FF01200EE
:1019D0000860A06A40F40070A06220688068C0F3CC
:1019E000424007280CD1207B50B9A06A20F48070B7
:1019F000A062A06AC00403D4A06A40F00100A06203
:101A000000207BE7240000202449922449922400EE
:101A100070B5044690F8240001280DD0012084F808
:101A200024002046FFF70EFD02004FF0000005D015
:101A300084F82400104670BD022070BDA16A40F2F7
:101A40000123994341F48071A1621F4D23681F490E
:101A5000AB4218D10E6816F4702F14D0A66A46F463
:101A60008016A6620E68760505D5A66A26F400568D
:101A700046F48056A662A66AF6040AD5E66A26F0FF
:101A80000606E66206E0A66A26F48016A6625E688E
:101A9000E9E7E06284F824006FF002001860206833
:101AA0008368C3F34243072B05D1A84208D10968D4
:101AB00011F4702F04D0816841F480118160B9E77E
:101AC000816841F4A001F9E70028014004240140A5
:101AD00010B5044690F82400012807D0012084F8AE
:101AE00024002046FFF782FC10B107E0022010BD61
:101AF000A16A21F4885141F00101A162002184F81A
:101B0000241010BD2DE9F05FC16B0C6801680B68F3
:101B1000D0F840C0042202FA0CF2494DDFF824A1AB
:101B2000494E4A4FDFF828B1DFF828E122422CD095
:101B30005A072AD50A68920603D40A6822F00402DA
:101B40000A600168A94201D1042219E0514501D17E
:101B5000402215E0B14202D14FF4806210E0B94258
:101B600002D14FF480420BE0594502D14FF480225C
:101B700006E0714502D14FF4800201E04FF080622F
:101B80002F4908394A60C16A3BE04FF0020808FA61
:101B90000CF818EA040F4FF000094FF0010235D09D
:101BA0005FEA837832D50B689B0605D40B6823F077
:101BB0000A030B6080F821200168A94201D10222AA
:101BC00019E0514501D1202215E0B14202D14FF474
:101BD000007210E0B94202D14FF400520BE05945B7
:101BE00002D14FF4003206E0714502D14FF40012E9
:101BF00001E04FF00072124908394A6080F82090E5
:101C0000816A00291AD0BDE8F05F0847082505FA67
:101C10000CF5254212D01B0710D50B6823F00E03DC
:101C20000B6090F84010C36B02FA01F159608263B7
:101C300080F8212080F82090016BE2E7BDE8F09F5A
:101C4000080002401C0002403000024044000240F4
:101C5000580002406C00024030B528B308C8134950
:101C600014221944B1FBF2F18900C1631049816368
:101C7000022141771A6843F6F0718A43D0E90014D3
:101C80002143D0E902452C4321430469214344699F
:101C900021438469214311431960002141630122DA
:101CA00042770177084630BD012030BDF8FFFDBF07
:101CB0000000024070B5044600F004F90546601CBF
:101CC00002D004480078044400F0FCF8401BA04215
:101CD000FAD370BD180000202DE9F84FDFF8B89155
:101CE0000024A9F1040B23460F2709F1040AABF1E4
:101CF000040EC9E00125A5402A40AA427DD1674EC5
:101D0000D1F804C0ACEB0608B44532D014DCBCF109
:101D1000030F3AD009DCBCF1000F2AD0BCF1010F4F
:101D20001CD0BCF1020F31D11DE0BCF1110F17D056
:101D3000BCF1120F2AD119E0B8F5881F19D006DCC2
:101D4000B8F5803F15D0B8F5801F1FD111E0B8F568
:101D5000001F0ED0B8F5041F18D10AE0CB6815E0BB
:101D6000CB681B1D12E0CB6808330FE0CB680C3347
:101D70000CE08B682BB1012B4FF0080303D04561B9
:101D800004E0042302E0056100E00023FF2A01D8FB
:101D9000064601E000F104064FEA840501D9A5F1E9
:101DA0002005D6F8008007FA05FC28EA0C0803FA9B
:101DB00005F548EA0508C6F800804D68ED0062D5D3
:101DC000374DAE6946F00106AE61AD6924F00306F9
:101DD00005F001050095334D06EB050CDCF80850C5
:101DE000A607360F07FA06F825EA0805DFF8B880D7
:101DF000404503D14FF0000817E044E0DFF8AC8025
:101E0000404502D14FF001080FE0DFF8A4804045C3
:101E100002D14FF0020808E0DFF89880404502D177
:101E20004FF0030801E04FF0040808FA06F848EA0A
:101E30000508CCF808804D68D9F80060ED024D46E1
:101E400001D5164300E096432E604D68DAF8006035
:101E5000AD02554601D5164300E096432E604D680D
:101E6000DBF80060AD035D4601D5164300E0964304
:101E70002E604D68DEF80060ED03754601D516430F
:101E800000E096432E60641C0D682A46E5407FF40E
:101E900031AFBDE8F88F00000804014000001110C8
:101EA000001002400000014000080140000C014009
:101EB00000100140001401400AB10161704709049B
:101EC000FBE7000001488068704700001800002010
:101ED00070B5040025D094F83D00002520B984F8A1
:101EE0003C50204600F076FA242084F83D0020681B
:101EF000016821F0010101602068016841F400419E
:101F000001602068016821F40041016000F090FC4C
:101F10004D4A6168914201D84C4900E04C498842E1
:101F200001D2012070BD4B492368B0FBF1F15E681E
:101F300026F03F060E435E606368934206D94FF475
:101F4000967359434FF47A73B1FBF3F12368491C3C
:101F50001E6A26F03F06314319626168914210D82B
:101F60004900401EB0FBF1F2521CC2F30B02042ADE
:101F700001D2042022E0B0FBF1F0401CC0F30B00C2
:101F80001CE0A268F2B301EBC10303EB0116431E90
:101F9000B3FBF6F35B1C43F480431B0549D092B3BB
:101FA00001EBC10202EB0111401EB0FBF1F0401C3D
:101FB000C0F30B0040F4804040F400402168CA693F
:101FC0004CF6FF739A431043C861D4E907100143EC
:101FD0002068026822F0C00211430160D4E90301C5
:101FE00001432068826848F2FF339A4311438160BD
:101FF000D4E9050108432168CA6822F0FF021043B2
:10200000C86001E00EE016E02068016841F00101BF
:1020100001602564202084F83D00256384F83E504B
:10202000002070BD01EB4106431EB3FBF6F35B1CC1
:10203000B3E70120C2E701EB4101401EB0FBF1F024
:10204000401CC0F30B00B7E7A086010080841E008F
:1020500000093D0040420F002DE9F84F0025DDF852
:102060002890984617468A4604460095FFF72AFFAF
:10207000064694F83D0020287AD11923012286498A
:102080002046009601F0AAF80028F5D194F83C000B
:1020900001286DD0012084F83C0020680168C90740
:1020A00003D1016841F0010101602068016821F459
:1020B00000610160222084F83D00102084F83E0079
:1020C00025646762A4F82A80608D20857348E062E9
:1020D00033464A465146204600F090FF00287CD106
:1020E000208DDFF8BC81202768B1012814D0022898
:1020F000206801681ED041F4806101602068416958
:1021000080690090BBE020684169816900910168A5
:1021100041F400710160B2E02068016821F480613F
:10212000016072B62068416981690091016841F4DB
:1021300000710AE041F40061016072B620684169F3
:1021400081690091016821F48061016062B696E0C6
:10215000032865D801280CD002284B464FF0000216
:102160004146204600960BD001F038F8A8BB0CE0A1
:1021700090E032464946204601F0D6F868BB71E04F
:1021800001F02CF848BB72B633E02068016821F4F6
:102190008061016072B620680069616A0870606AD7
:1021A000401C6062208D401E2085608D401E608531
:1021B0003C4846F2A8110068B0FBF1F0C0EBC0004B
:1021C00000EB80000090401E009007D0206840691E
:1021D000C04340070DD50098F5E727E044F8305F8D
:1021E0006773A573206940F02000206162B62573F3
:1021F0001CE02068016841F40071016020680069FA
:10220000616A0870606A401C6062218D491E2185E8
:10221000618D491E618562B621680969017025E0FA
:1022200032464946204601F07FF810B10120BDE852
:10223000F88F20680069616A0870606A401C6062FB
:10224000208D401E81B22185608D401E60852068F2
:102250004269D243520712D4032903D1016821F401
:102260008061016020680069616A0870606A401CD2
:102270006062208D401E2085608D401E6085208D0F
:1022800000287FF465AF84F83D7084F83E5084F8F0
:102290003C50CCE70220CAE7020010000000FFFF1C
:1022A00004000100240000202DE9F84F1F4690464D
:1022B0008A460446DDF82890FFF704FE054694F8A8
:1022C0003D0020287FD11923012240492046009556
:1022D00000F084FF002876D194F83C00012872D0E9
:1022E000012084F83C0020680168C90703D1016817
:1022F00041F0010101602068016821F40061016082
:10230000212084F83D00102084F83E000026266439
:10231000C4F824806785608D20852D48E0622B46B7
:102320004A465146204600F0DFFE90B920684169D8
:102330008069009036E02A464946204601F02CF894
:1023400050B1206C042804D12068016841F4007168
:1023500001600120BDE8F88F606A2168007808619B
:10236000606A401C6062618D491E6185218D491E35
:1023700089B2218522685369DB435B070BD451B1D5
:1023800000781061606A401C6062608D401E60854C
:10239000208D401E20852A464946204600F0F2FE48
:1023A0000028CED1208D0028C5D154F83D0B0168FE
:1023B00041F400710160202004F81E09E677667779
:1023C0000020C7E7FFE70220C4E70000020010007A
:1023D0000000FFFF10B586B000210091019102912D
:1023E000039100681349884222D1134CA06940F040
:1023F0000800A061A069694600F0080004904FF44D
:102400004070009012200190032003900B48FFF7CA
:1024100063FC0B48416841F0E06141F0020141601A
:10242000E06940F40010E061E06900F400100490FD
:1024300006B010BD0054004000100240000C0140E6
:1024400000000140024881680278114481607047B1
:1024500018000020074810B5016841F01001016024
:10246000032000F075F80F2000F006F800F024F8C3
:10247000002010BD0020024070B50D4D04464FF401
:102480007A712878B1FBF0F00A490968B1FBF0F0E5
:1024900000F0A4FB48B9102C07D200222146501EA0
:1024A00000F036F800206C6070BD012070BD0000A7
:1024B00018000020240000200C4808B5816941F074
:1024C00001018161816901F001010091C16941F05F
:1024D0008051C161C06900F080500090044841689B
:1024E00021F0E06141F00071416008BD0010024040
:1024F00000000140002809DB00F01F02012191408B
:102500004009800000F1E020C0F800117047000091
:10251000F0B40E4B1B680C46C3F30223C3F107054E
:10252000042D00D90425191D072901D2002300E03C
:10253000DB1E012606FA05F1491E214099409E4006
:10254000761E16403143F0BC01F0DBBD0CED00E01F
:10255000064900F0070208684FF6FF03184040EAFA
:102560000220034A10430860704700000CED00E0B1
:102570000000FA0510B501460020234C012922D0A5
:10258000022939D010291DD161682268D20119D5DC
:102590001E48C1F38342C903805C0AD561681B4AA7
:1025A000C1F34041921E515C194AB2FBF1F148431C
:1025B00001E0184948436168490203D440000321FF
:1025C000B0FBF1F010BD226AC2F30121012903D151
:1025D000920701D5C80310BD022905D1626A92078E
:1025E00002D549F6404010BD0329FCD1216889037A
:1025F000F9D54FF2244010BD00F02AF96168C1F30B
:102600008131491C4900DBE700100240984E000868
:1026100000127A0000093D002DE9F84305460078D4
:10262000354CC00754D0E0690026C00008D4E069EA
:1026300040F08050E061E069012600F08050009099
:102640002E480168C90512D40168804641F48071A2
:102650000160FFF737FC074605E000BFFFF732FCDB
:10266000C01B642823D8D8F80000C005F6D5206A1E
:1026700010F4407021D0A98801F4407181421CD02F
:10268000206A1F49012220F440700A6000220A607B
:102690002062C00711D0FFF715FC074641F28838C9
:1026A00008E000BFFFF70EFCC11B414502D9032023
:1026B000BDE8F883206A8007F4D5206A696820F4B1
:1026C0004070084320621EB1E06920F08050E06154
:1026D0002878800705D56068A96820F44040084341
:1026E00060602878C00605D56068E96820F480003D
:1026F000084360600020DBE70010024000700040EB
:10270000400442422DE9F0470F46050061D0434E98
:10271000306800F00700B84209D2306820F00700A6
:1027200038433060306800F00700B84251D1286863
:102730003B4C810712D5400703D5606840F4E06048
:1027400060602878000703D5606840F460506060DE
:102750006068A96820F0F000084360602878C0072E
:1027600028D06868012810D02168022810D0890775
:1027700000292EDA616821F0030101436160FFF74F
:10278000A1FB804641F288390DE021688903EFE71B
:102790008901EDE7FFF796FBA0EB0801494502D957
:1027A0000320BDE8F0876068696800F00C00B0EBBA
:1027B000810FEFD1306800F00700B8420BD93068C4
:1027C00020F0070038433060306800F00700B8425E
:1027D00001D00120E5E72878400705D56068E96861
:1027E00020F4E060084360602878000706D5606840
:1027F000296920F4605040EAC100606000F038F8B8
:102800006168084AC1F30311515CC8400649086079
:1028100006480068FFF730FE0020C2E700200240B3
:1028200000100240A84E0008240000201C000020D8
:102830000448054900684968044AC1F30221515C13
:10284000C84070472400002000100240B84E000825
:102850000448054900684968044AC1F3C221515C33
:10286000C84070472400002000100240B84E000805
:102870000E4A51680E4801F00C03042B11D0082BAE
:102880000FD10C48C1F38343C903C05C0AD551681A
:10289000084AC1F34041921E515C054A5043B0FBC7
:1028A000F1F07047044948437047000000100240AF
:1028B00000127A00864E000800093D002DE9F84F0D
:1028C000040070D02078C04DC00749D06868C0F3BC
:1028D0008100012807D06868C0F38100022809D16F
:1028E0006868C00306D52868800339D56068002869
:1028F000E7D035E06068B0F5803F0BD010B1B0F59F
:10290000A02F11D0286820F480302860286820F497
:10291000802002E0286840F480302860606890B130
:10292000FFF7D0FA06460AE0286840F480202860C5
:10293000F0E700BFFFF7C6FA801B642873D8286849
:102940008003F7D50CE0FFF7BDFA064605E000BFAF
:10295000FFF7B8FA801B6428F0D828688003F7D402
:1029600020789A4E80074FF001094FF0000839D5C2
:10297000686810F00C0F07D06868C0F38100022867
:1029800009D16868C00306D42868800714D5206977
:10299000012808D110E02069B0B1C6F80090FFF717
:1029A00091FA074605E00AE1FFF78CFAC01B0228FE
:1029B000C4D828688007F7D52868616920F0F80036
:1029C00040EAC10028600DE0C6F80080FFF77AFAFF
:1029D000074604E0FFF776FAC01B022823D82868D0
:1029E0008007F7D4207800072CD57948A169D9B1A0
:1029F000C0F80090FFF766FA074604E0FFF762FAB6
:102A0000C01B02280FD8686A8007F7D571484FF4B9
:102A1000FA510068B0FBF1F0009000BF0098411E31
:102A20000091FAD20EE080E0C0F80080FFF74AFA89
:102A3000074604E0FFF746FAC01B022875D8686A0B
:102A40008007F7D42078400760D5E8690027C000E8
:102A500008D4E86940F08050E861E869012700F097
:102A6000805000905C480168C90513D40168834612
:102A700041F480710160FFF725FA824606E000BF4D
:102A8000FFF720FAA0EB0A0064284ED8DBF800001C
:102A9000C005F5D5E06801280AD008B1052813D093
:102AA000286A20F001002862286A20F0040002E071
:102AB000286A40F001002862E06841F2883B98B142
:102AC000FFF700FA82460BE0286A40F00400286213
:102AD000EEE700BFFFF7F6F9A0EB0A0159455AD817
:102AE000286A8007F6D50CE0FFF7ECF9824605E08E
:102AF000FFF7E8F9A0EB0A0159454CD8286A80078E
:102B0000F6D41FB1E86920F08050E861E06988B32D
:102B10006968C1F38101022944D00228C6F86080A7
:102B200004D0FFF7CFF9044638E034E0FFF7CAF9E4
:102B3000074604E0FFF7C6F9C01B02282BD8286817
:102B40008001F7D4206AB0F5803F05D16868A1689C
:102B500020F4003008436860D4E90801084369683C
:102B600021F4741108436860C6F86090FFF7AAF971
:102B7000044606E025E000BFFFF7A4F9001B022889
:102B800009D828688001F7D51BE000BFFFF79AF944
:102B9000001B022802D90320BDE8F88F28688001B5
:102BA000F4D40EE00128F7D06868226A00F480317E
:102BB000914204D1616A00F47010884201D0012072
:102BC000EAE70020E8E7000000100240000042426F
:102BD00080044242240000200070004010B5401ED6
:102BE000B0F1807F01D3012010BD4FF0E02460617F
:102BF0000F21601701F085FA0020A06107202061F5
:102C0000002010BD10B590F83C20012A22D00122EE
:102C100080F83C20CA688C6822F4407222434C68D9
:102C200022F4806222430C6822F4006222430C6981
:102C300022F4805222434C6922F400522243C96993
:102C4000002322F480420A4301684A6480F83C3041
:102C5000002010BD022010BD70B590F83C20012A64
:102C600026D0012480F83C40022280F83D200368F1
:102C70005A689D6822F070060A6832435A600D4B0C
:102C800002689A4208D0B2F1804F05D00A4B9A42AE
:102C900002D00A4B9A4204D1496825F080031943B7
:102CA000916080F83D40002180F83C10084670BDDE
:102CB000022070BD002C01400004004000080040CC
:102CC00000B585B000210091019102910391006847
:102CD0000B49884212D10B48816941F0040181619E
:102CE0008069694600F0040004904FF44070009041
:102CF0000220019003900448FEF7EEFF05B000BDEE
:102D0000002C0140001002400008014070B504464C
:102D100090F83C0000260D4601280FD0012084F8D1
:102D20003C006AB1042A1DD0082A2FD00C2A3FD0BB
:102D30000126002084F83C00304670BD022070BDA2
:102D4000206801F0CBF82068816941F008018161B9
:102D50002068816921F004018161206881692A6904
:102D6000114311E0206801F0E1F82068816941F425
:102D7000006181612068816921F48061816120683E
:102D800081692A6941EA02218161D2E7206801F064
:102D9000F9F82068C16941F00801C1612068C16982
:102DA00021F00401C1612068C1692A69114311E061
:102DB000206801F013F92068C16941F40061C16124
:102DC0002068C16921F48061C1612068C1692A69F4
:102DD00041EA0221C161ACE710B5040003D094F8C8
:102DE0003D0010B107E0012010BD002084F83C0038
:102DF000204600F01FF8022084F83D00211D2068C5
:102E000001F028F8012084F8460084F83E0084F898
:102E10003F0084F8400084F8410084F8420084F8C0
:102E2000430084F8440084F8450084F83D00002005
:102E300010BD000008B500680649884208D1064860
:102E4000816941F400618161806900F40060009053
:102E500008BD0000002C01400010024010B50446DF
:102E6000022249B104290ED0082913D094F8410058
:102E7000012816D0012010BD94F83E000128F9D198
:102E800084F83E200FE094F83F000128F2D184F846
:102E90003F2008E094F840000128EBD184F840205E
:102EA00001E084F841200122206801F009F80F496F
:102EB0002068884203D1426C42F400424264206898
:102EC000884208D0B0F1804F05D00949884202D02D
:102ED0000849884204D1816801F00701062903D01E
:102EE000016841F001010160002010BD002C01408B
:102EF000000400400008004070B5040004D094F8BD
:102F00004100002510B106E0012070BD84F840505A
:102F1000204600F023F8242084F841002068C1688E
:102F200021F40051C160204601F07AF8206801695F
:102F300021F4904101612068416921F02A01416139
:102F40002068C16841F40051C1606564202084F8A4
:102F5000410084F842006563002070BD30B585B043
:102F60000024009401940294039400681449884258
:102F700023D11448C16941F40031C161C16901F430
:102F800000310491816941F00401816180690E4D35
:102F900000F004000490042000900220019003201F
:102FA000039069462846FEF797FE0820CDE9000405
:102FB000694628460294FEF78FFE05B030BD00003A
:102FC000004400400010024000080140FEE7016894
:102FD0004A69D24352050FD46FF480624A610021DE
:102FE00040F8301F202242738173026942F00402CC
:102FF0000261017301207047002070472DE9F84FEE
:103000000446C06A1E4693460D4621680A6842F48B
:1030100080620A60082807D0012805D010F5803F9B
:1030200002D0206B112804D12068016841F480711E
:1030300001604FF001195B46002249462046009688
:1030400000F0CCF84FF4007840B120680068C0056B
:1030500001D5C4F840800320BDE8F88F2069DFF86F
:1030600084A0B0F5804F0FD00620216800EAD51764
:1030700047F0F000086133465A460AF1060120463F
:1030800000F0F4F858BB03E0E8B240F001001CE0A7
:103090002168E8B2086133465A465146204600F09E
:1030A000E5F8E0B92068416981690091016841F45F
:1030B000807101605B46002249462046009600F080
:1030C0008DF80028C1D147F0F1002168086133462E
:1030D0005A465146204600F0C9F80028BCD00120CD
:1030E000BAE7000002000100F8B50446C06A1E46B7
:1030F0000D461746082807D0012805D010F5803F57
:1031000002D0206B122804D12068016841F480713C
:103110000160134600224FF001112046009600F096
:103120005DF840B120680068C00502D54FF400701A
:1031300020640320F8BD2069B0F5804F0ED0062032
:10314000216800EAD51040F0F000086133463A46A5
:103150000B49204600F08AF878B902E005F0FE003D
:1031600000E0E8B221680861054933463A46891F04
:10317000204600F07BF80028DCD00120F8BD0000DC
:103180000800010070B516460D4604461EE02046B4
:10319000FFF71DFF08B1012070BD681C16D0FEF7B7
:1031A00091FE801BA84200D885B920684069C043C1
:1031B00040070BD5002044F8300F20216173A07325
:1031C000216941F0200121612073E4E72068406912
:1031D000C0434007DBD4002070BD00002DE9F0475C
:1031E000984617460D460446C1F30746DDF8209081
:1031F0002AE000BFB8F1FF3F26D0FEF763FEA0EB48
:103200000901414502D8B8F1000F1DD12068012EF7
:1032100016D0806925EA00000004000C12D00020BE
:10322000B84211D1002044F8300F20216173A073FF
:10323000216941F02001216120730120BDE8F08760
:103240004069E7E70120EBE72068012E0AD080699A
:1032500025EA00000004000C06D00020B842C9D0C6
:103260000020EBE74069F3E70120F7E72DE9F0479D
:10327000984616460D4604464FF000094FF0200AC6
:10328000C1F3074723E020684069C043400515D4D7
:103290002068016841F40071016021686FF480606A
:1032A0004861C4F8309084F83DA084F83E90216CC9
:1032B00041F00401216484F83C9021E0701C06D0A8
:1032C000FEF700FEA0EB0800B04203D816B1012FB4
:1032D0001FD021E02068012F15D0806925EA000069
:1032E0000004000C18D000BF44F8309F84F80DA0F3
:1032F00084F80E90216941F02001216184F80C903E
:103300000120BDE8F087406925EA00000004000CB8
:10331000EAD12068406901E02068806925EA000060
:103320000004000CAFD1ECE72DE9F04100259046F8
:103330000E460446202728E04069C043C0060CD44E
:1033400054F8301B6FF01000486144F8105967774B
:10335000A577206A2062257714E0FEF7B3FDA0EB85
:103360000800B04200D886B920684069C0434006D2
:103370000BD544F8305F6773A573206940F02000D7
:10338000206125730120BDE8F08120684169C943AF
:103390004906D1D40020F6E770B516460D4604461E
:1033A0001EE02046FFF713FE08B1012070BD681C27
:1033B00016D0FEF787FD801BA84200D885B920688B
:1033C0004069C04300060BD5002044F8300F20218F
:1033D0006173A073216941F0200121612073E4E74A
:1033E00020684069C0430006DBD4002070BD0000A7
:1033F00010B500F009F801F063FCBDE81040014988
:1034000001F072BC0AD7A33A3EB50CA00A240068AA
:103410000123CDE9004001AA80210948FEF744FFBD
:10342000022302AA802106480094FEF715FE08B187
:10343000FF203EBDBDF8080040BA3EBD02000000BE
:10344000C40000201CB505218DF80410010A8DF878
:1034500005108DF806000A200090032301AA8021A0
:103460000148FEF721FF1CBDC40000201CB500214F
:103470008DF80410010A8DF805108DF806000A2059
:103480000090032301AA80210148FEF70DFF1CBD17
:10349000C400002010B544F2FF50FFF7E7FFBDE87D
:1034A00010404FF42060FFF7CDBF00002DE9F04140
:1034B0000F4C074600216088401E83B22088401EC2
:1034C00082B2084600F0E4F900260BE0002504E093
:1034D000384600F0C1FA6D1CADB22088A842F7D87A
:1034E000761CB6B26088B042F0D8BDE8F08100002A
:1034F000A801002010B5094C002202212046FEF749
:10350000DBFC6420FEF7D6FB012202212046FEF7F9
:10351000D3FCBDE810403220FEF7CCBB000C0140CC
:103520002DE9F84F1F4605468346C819401E9246AE
:1035300083B205EB0A00401E82B288465846DDF889
:10354000289000F0A5F900261AE054460FE00B98E9
:10355000072C009018D908234A464146284600F017
:1035600065F9083C0835E4B209F10109ADB2002C57
:10357000EDD108F10100761C5D461FFA80F8F6B225
:10358000BE42E2D3BDE8F88F23464A46414628466C
:1035900000F04CF909F10109EBE7000010B500F06B
:1035A00073F903480088BDE8104000F055BA0000E8
:1035B00030000020054A40081288B2FBF0F28A422F
:1035C00001D348437047002070470000A801002045
:1035D000044A5288B2FBF0F28A4201D34843704752
:1035E00000207047A801002010B5FFF783FF1120CD
:1035F00000F016FA7820FEF75DFBB12000F010FA1B
:10360000012000F0F1F92C2000F0EEF92D2000F05F
:10361000EBF9B22000F004FA012000F0E5F92C20CB
:1036200000F0E2F92D2000F0DFF9B32000F0F8F906
:10363000012000F0D9F92C2000F0D6F92D2000F05F
:10364000D3F9012000F0D0F92C2000F0CDF92D2085
:1036500000F0CAF9B42000F0E3F9072000F0C4F943
:10366000C02000F0DDF9A22000F0BEF9022000F039
:10367000BBF9842000F0B8F9C12000F0D1F9C520D1
:1036800000F0B2F9C22000F0CBF90A2000F0ACF94A
:10369000002000F0A9F9C32000F0C2F98A2000F050
:1036A000A3F92A2000F0A0F9C42000F0B9F98A207B
:1036B00000F09AF9EE2000F097F9C52000F0B0F97B
:1036C0000E2000F091F9362000F0AAF9C82000F091
:1036D0008BF9E02000F0A4F90F2000F085F91A2002
:1036E00000F082F90F2000F07FF9182000F07CF93B
:1036F0002F2000F079F9282000F076F9202000F042
:1037000073F9222000F070F91F2000F06DF91B20E2
:1037100000F06AF9232000F067F9372000F064F91F
:10372000002000F061F9072000F05EF9022000F0AF
:103730005BF9102000F058F9E12000F071F90F203A
:1037400000F052F91B2000F04FF90F2000F04CF967
:10375000172000F049F9332000F046F92C2000F042
:1037600043F9292000F040F92E2000F03DF93020E7
:1037700000F03AF9302000F037F9392000F034F940
:103780003F2000F031F9002000F02EF9072000F072
:103790002BF9032000F028F9102000F025F92A2049
:1037A00000F03EF9002000F01FF9002000F01CF9A5
:1037B000002000F019F97F2000F016F92B2000F00E
:1037C0002FF9002000F010F9002000F00DF9002082
:1037D00000F00AF99F2000F007F9F02000F020F92E
:1037E000012000F001F9F62000F01AF9002000F0A5
:1037F000FBF83A2000F014F9052000F0F5F8292034
:1038000000F00EF9002000F055F90122114605489C
:10381000FEF752FB0020FFF749FE034900204880D5
:1038200010BD0000000C0140300000202DE9F047E1
:103830001D46089F904689460646082B02D9082552
:10384000002401E0002416E098F800008021E14007
:10385000084207D027B149463046FFF79FFE06E0F1
:10386000074801E01FB90748008800F0F5F8761C0A
:10387000641CB6B2E4B2AC42E6D3BDE8F087000007
:1038800030000020320000200B460246AFF30080DB
:103890002DE9F041184C0746984615460E46A07A89
:1038A00000F0BEF8380A00F09FF8A07B3844C0B2A0
:1038B00000F09AF8280A00F097F8A07B2844C0B2DC
:1038C00000F092F8207B00F0ABF8300A00F08CF8A2
:1038D000E07B3044C0B200F087F84FEA182000F0D7
:1038E00083F8E17B01EB0800C0B200F07DF8BDE891
:1038F000F04100F0CFB80000A80100202DE9FC47FE
:1039000006461F480D461C460188DDF828A0A1EB9D
:103910005401B14231DB81464088001BA8422CDBB8
:103920002819401E83B2203A06EB5400D7B2401E3D
:1039300082B229463046FFF7ABFF102C01D1DFF8E9
:103940004480204600F013FA07FB0080CDE9000A0E
:103950006208234629463046FFF7E2FDB9F8021017
:10396000B9F8000002B0491EBDE8F047401E8BB216
:1039700082B200210846FFF78BBFBDE8FC8700003C
:10398000A8010020C04E00082DE9F8431E46DDF8CE
:1039900020908846054607461446202B1ED920262F
:1039A0001CE0802A17D20D2A0BD033464146284608
:1039B000CDF80090FFF7A2FF05EB560085B2641C1E
:1039C0000CE008EB06001FFA80F860783D460A28F4
:1039D000F5D1641CF3E7A81985B2A41C2278002A4B
:1039E000DFD1BDE8F883000070B50C4D06464FF4FA
:1039F0008064002221462846FEF75EFA0122D102A9
:103A00002846FEF759FA304600F0BEF9214628460E
:103A1000BDE870400122FEF74FBA0000000C0140E3
:103A200070B50C4D06464FF48064002221462846AE
:103A3000FEF742FA002261002846FEF73DFA3046C2
:103A400000F0A2F921462846BDE870400122FEF7A9
:103A500033BA0000000C014070B50D4E04464FF41F
:103A60008065002229463046FEF726FA0122D1025F
:103A70003046FEF721FA200A00F086F9E0B200F0A5
:103A800083F929463046BDE870400122FEF714BA9A
:103A9000000C01400148007AFFF7C2BFA8010020D6
:103AA00010B50C46FFF7BCFFE0B2BDE81040FFF7D1
:103AB0009BBF000010B519492A2202234A812B22FC
:103AC0008A812C220A810324802280B1012814D00B
:103AD000012402281BD003281FD10A804A808C733E
:103AE000CB736821BDE810403620FFF7D9BF0A80AC
:103AF0004A808B73CC73C821F4E70A804A808C73A8
:103B0000CB73A8213620FFF7CBFF2821EAE70A80F4
:103B10004A808B73CC730821E4E710BDA801002014
:103B20003EB500241E48009401941C490294016093
:103B30008915816004730475042505614FF46021C3
:103B40004460C161FDF7F0FD08B1FDF7FCFC012008
:103B5000CDE90040694612480294FDF763FD08B1C3
:103B6000FDF7F1FC0220019069460D48FDF75AFD72
:103B700008B1FDF7E8FC0320019069460848FDF70D
:103B800051FD08B1FDF7DFFC694605480195FDF7D9
:103B900049FD002801D0FDF7D6FC3EBD00240140C0
:103BA00050000020094808B5416941F00101416118
:103BB0004069002200F00100009011460B20FEF742
:103BC000A7FCBDE808400B20FEF794BC00100240A3
:103BD00030B585B000200090019002900390164807
:103BE000816941F020018161816901F02001049126
:103BF000816941F004018161816901F0040104914E
:103C0000816941F00801816180690C4D00F0080074
:103C10004AF603440490002221462846FEF74CF958
:103C200001210220CDE90210CDE900416946284674
:103C3000FEF752F805B030BD00100240000C014004
:103C40000D4810B50B4901600C49416000214FF44B
:103C500080428160C0E9031241618161C1610162FA
:103C6000FEF736F9002803D0BDE81040FDF76BBC25
:103C700010BD000000540040C4000020A0860100D8
:103C800010B592B000240F941C2168461094FCF7E4
:103C9000BFFB202107A8FCF7BBFB25482349016097
:103CA00040F2E731C0E901144FF4B461C0E90314F4
:103CB00044618461FFF790F808B1FDF744FC0F946C
:103CC0000FA91B481094FEF7C7FF08B1FDF73BFC96
:103CD0006020CDE90004029403940494059400222A
:103CE000694613480694FFF711F808B1FDF72BFC5D
:103CF000042269460E48FFF709F808B1FDF723FCD6
:103D00000794089409944FF400500A94CDE90B40AD
:103D100007A907480E94FEF775FF08B1FDF713FCDD
:103D20000348FEF7CDFF12B010BD0000002C01408B
:103D3000180100200C4810B50A4901604FF4E13128
:103D40004160002181600C22C160C0E904128161E0
:103D5000C161FFF7D1F8002803D0BDE81040FDF79E
:103D6000F2BB10BD0044004060010020FEE74008A7
:103D7000410700D0012101EBD00141434806000E6C
:103D80007047FEE7704700002DE9F0410824104F0E
:103D900005464FF40048A602280601D5012200E09E
:103DA000002241463846FEF787F800223146384661
:103DB000FEF782F8012231463846FEF77DF86806A4
:103DC000050E641E14F0FF04E6D1BDE8F08100008A
:103DD000000C01407047FEF735BB30B593B0282189
:103DE0006846FCF715FB14210AA8FCF711FB002517
:103DF00001200F9510951195010412958DE823006F
:103E000004904FF4E010CDE90810022407946846AE
:103E1000FEF754FD08B172B6FEE70AA90F2081E84B
:103E200031004FF48060CDE90D0502210AA8FEF7AC
:103E300069FC08B172B6FEE74FF4004011900F9490
:103E40000FA8FEF7E9FB002801D072B6FEE713B019
:103E500030BD7047F0B50268164B174C174D4FF048
:103E60008047984205D0B84203D0A04201D0A84272
:103E700003D122F070064A683243984205D0B84216
:103E800003D0A04201D0A84203D122F44074CA68F2
:103E900022434C6922F08002224302608A68C26297
:103EA0000A688262984201D1096901630121416176
:103EB000F0BD0000002C014000040040000800405C
:103EC00010B501F01F030121046A99408C4304627C
:103ED000016A9A401143016210BD000030B5036AC7
:103EE000026A22F0010202624268846924F07305CA
:103EF0000C682C4323F002058B682B430A4DA84223
:103F00000BD123F00805CB6822F440722B434D6996
:103F100023F0040315438A692A4342608461496897
:103F20004163036230BD0000002C014030B5026ADD
:103F3000036A23F010030362436884690D6824F464
:103F4000E64444EA05248D6822F0200242EA051284
:103F50000B4DA8420ED1CD6822F0800242EA051234
:103F60004D6923F4406343EA85038D6922F04002E2
:103F700043EA85034360846149688163026230BD1E
:103F8000002C014030B5036A026A22F4807202629A
:103F90004268C46923F4007324F073050C682C4351
:103FA0008D6843EA05230C4DA8420ED1CD6823F459
:103FB000006343EA05234D6922F4405242EA0512A8
:103FC0008D6923F4806342EA05124260C461496846
:103FD000C163036230BD0000002C014030B5046AAB
:103FE000026A22F4805202624268C3690D6823F4B7
:103FF000E64343EA05238D6824F4005444EA05347B
:10400000064DA84204D14D6922F4804242EA85124D
:104010004260C36149680164046230BD002C014004
:1040200070B5044600680169E26821F4405111430B
:1040300001612169A0680843616908432168CA6871
:1040400041F20C639A430243CA6020684169A26945
:1040500021F44071114341611E492068884202D118
:10406000FEF7F6FB01E0FEF7E3FB00EBC00101EB1E
:104070000012606864218000B2FBF0F3B3FBF1F33F
:104080006FF018067343B2FBF0F5B2FBF0F605EBE8
:104090008305322303EB0515B5FBF1F5B6FBF1F60D
:1040A00005F0F00505EB0615B2FBF0F6B2FBF0F0FB
:1040B000B0FBF1F06FF01802504306EB800003EB09
:1040C0000010B0FBF1F0216800F00F002844886078
:1040D00070BD000000380140FEE7490050EAC120F1
:1040E00018BF04204A0D18BF40F0010040F2FF72D3
:1040F000B2EB515F08BF40F00200012808BF052065
:1041000070470907090E002804DB00F1E02080F861
:104110000014704700F00F0000F1E02080F8141D3B
:10412000704730380A2801D20120704700207047BC
:104130001CB5FEF78FF9FFF750FEFFF749FDFFF7BB
:1041400031FDFFF7EDFCFFF79BFDFFF779FDFFF772
:10415000F1FDB848FDF7FAF9FFF79CF9FFF744FACB
:10416000B54E4EF65B700025308029461020FFF7D3
:104170002FFA044602211020FFF71CFA1023AFA2E9
:1041800021460095FFF700FC47F67C503080012166
:104190001020FFF71DFA044601211020FFF70AFA4C
:1041A0001023AAA221460095FFF7EEFB4FF0020A6A
:1041B00051461020FFF70CFA044604211020FFF7A7
:1041C000F9F91023A4A221460095FFF7DDFB032196
:1041D0001020FFF7FDF9044601211020FFF7EAF94E
:1041E00010239FA221460095FFF7CEFB4FF0030B53
:1041F00059461020FFF7ECF9044609211020FFF77B
:10420000D9F9102398A221460095FFF7BDFB0421A0
:104210001020FFF7DDF9044604211020FFF7CAF94A
:10422000102393A221460095FFF7AEFB0021924890
:10423000FEF714FE04219048FEF710FEFDF742FE43
:104240000190FDF73FFEDFF8349280460220FDF733
:1042500031FDFDF737FEA8EB00000E2821D9FDF750
:1042600031FE8046D9F80810D9F800004C46421AB1
:104270000C2A01DD002103E0081A0C2803DD0121CE
:10428000012000F01DF9E1686068421A0C2A01DD86
:10429000002103E0081A0C2803DD0121022000F0B0
:1042A0000FF901210420FDF70BF94FF47A7148430F
:1042B000000BC9F800004C4601210020FDF700F971
:1042C0004FF47A714843000B606001210520FDF72F
:1042D000F7F84FF47A714843000B0121A0600846BB
:1042E000FDF7EEF84FF47A714843000BE060FDF7FC
:1042F000E9FD0199081AB0F57A7FA7D9FDF7E2FD2B
:10430000019047F67C5030805DA15F486268FBF702
:104310006BFF51461020FFF75BF907460421102080
:10432000FFF748F91023584A39460095FFF72CFB50
:1043300056A155482268FBF757FF03211020FFF7CD
:1043400047F9074604211020FFF734F910234E4A9D
:1043500039460095FFF718FB4CA14B48A268FBF7C4
:1043600043FF59461020FFF733F907460C21102070
:10437000FFF720F91023444A39460095FFF704FB64
:1043800042A14148E268FBF72FFF04211020FFF70C
:104390001FF9074607211020FFF70CF910233A4AAE
:1043A00039460095FFF7F0FAFFF722F8384907463B
:1043B0002061884202DB3748606119E03648874255
:1043C00001DA656111E0384600F032FC4FF033321B
:1043D000324B00F043FB0422314B00F093F900F024
:1043E000B7F830496061884202DC4FF47840308091
:1043F0002D49606900F078FC00F046FC0446384620
:1044000000F016FC02460B4628A11F480094FBF75B
:10441000EBFE06211020FFF7DBF8044601211020F7
:10442000FFF7C8F81023184A21460095FFF7ACFAA9
:104430000CE700005000002030000020536F6C613A
:104440007220636861726765000000004C696768EC
:1044500074207061723A200075703A2000000000EC
:104460006C743A200000000072743A2000000000D2
:10447000646E3A20000000001801002000000020B7
:1044800075703A2564202000340000202564200047
:10449000CDCC8440A4707D3F9A99594033330B4072
:1044A0000000E83F6666E63E0000C842423A253317
:1044B0002E31667620513A253032642525200000C1
:1044C00010B5164A242401281368154A0CD0022876
:1044D00009D1506801291AD0801E5060242800DAC2
:1044E00054605068986310BD0D480129006807D0DA
:1044F000801E1060242800DA14601068586310BD14
:10450000801C1060B428F8DDB4201060F5E7801C32
:1045100050606C28E5DD6C205060E2E71801002057
:104520002800002010B500290AD00878002807D0FC
:1045300005487844FCF74AFB002801D0002010BD54
:104540000248784410BD0000461000003E100000F4
:1045500021F00042A2F16052B2F5801F01F0004349
:1045600028BFD2F17F6C0BD95FEA001C43EAC2027C
:1045700042EB507018BF704728BF20F00100704711
:10458000B2F5801FBCBF184670474FEA410C1CF5BE
:10459000001F02D2084600F06EBC70B500F00AFAA7
:1045A00000000089FFF7F6BF4FF00040A0F5800043
:1045B0007047000010B591EA030F48BF83F0004335
:1045C00000F15482841A71EB030C05D2121943EBEB
:1045D0000C03001B61EB0C01DFF824E14FEA1154DE
:1045E000A4EB135C1EEA430F18BF9EEA445F73D02E
:1045F00023EA0E03DCF1200E21EA045143F4801378
:1046000032D322FA0CFE10EB0E0023FA0CFE41EB23
:104610000E01CCF1200E03FA0EFE10EB0E0051F14C
:104620000001B1F5801FCCF1200E32D201EB045114
:1046300012FA0EF2BDE8104058BF7047401C38BF58
:104640005FEA420218BF7047002814BF20F0010043
:1046500041F100014FEA410313F5001F38BF7047D5
:10466000A1F1C04100F0F4B9012A43EB0302ACF11F
:10467000200CDCF11F0E32BF4FF0000E23FA0CF3BA
:1046800010EB030041EB0451B4EB115FD0D0A1EB70
:10469000045101F5801149085FEA300001EB045133
:1046A0000ED350F1000038BF12FA0EFE08D1BDE85B
:1046B0001040C9E7401C38BF5FEA4202CAD1C3E7D5
:1046C000BDE810404FEA410313F5001F38BF7047A3
:1046D000A1F1C04100F0BCB99EEA445F08D011EAE4
:1046E0005E0FBDE8104004BF01F00041002070479C
:1046F000BDE8104070B500F05DF900BF64FBBE3E40
:104700000000E0FF2DE9C04130B4DFF8A0C23CEA70
:10471000111418BF3CEA131400F0EC8081EA030581
:104720001CEA111444EAD57418BF1CEA131500F0F2
:10473000C780A4EB05044FF0004545EAC12145EAD6
:10474000C32341EA505143EA525304F17F74994222
:1047500004F500344FEAC0204FEAC22208BF90425D
:1047600000F09C804FEA13650FF24016765D4FEA29
:10477000134506FB05F7C7F1807706FB07F74FEAFD
:10478000D737A7FB03687642C8F58038A7FB06CE6B
:1047900038BFA8F1010807FB08E64FF0000EA6FBA2
:1047A000028CE6FB03CEDCF1000CCEF1004E38BFEC
:1047B000AEF1010EA6FB0C584FF000074FF00005BC
:1047C000E6FB0E87A1FB08C6A0FB07CE16EB0E0684
:1047D00045F10005E1FB076515F1E04E7EBFA4F54C
:1047E00080345FEA46066D4116F1800745F1000509
:1047F0004FEA17274FEA066647EA0567A6F1DE4645
:10480000B6F1805F4FEA15251FD9384624F0010C18
:1048100005EBC471BCF1FE6F01EB0C1102D8F0BCCA
:10482000BDE8008124425CBF01F5801E9EEAC47F82
:1048300002D4F0BCBDE80081244238D4F0BCA1F120
:10484000C041BDE8004100F003B94FEAD22242EA7C
:1048500043524FEAD323A7FB02864FEAD02040EA17
:10486000415007FB03661EEA0E0F4FEAD12105FBFC
:10487000026658BFA6EB0056B6EB00564FEA520E42
:104880004EEAC37E18EB0E0E56EB530EBDD518EB59
:1048900002085E417F1C55F10005B6E74FF4801514
:1048A0004FF000074FF000064FF00008ADE7F0BCF6
:1048B0004FF0000001F1C04101F00041BDE800816E
:1048C00011EA0C1F0CEA131500D00CE013EA0C1FC0
:1048D00000F025804FF00000F0BC81EA030101F0F8
:1048E0000041BDE80081F0BCBDE8004181EA030160
:1048F00000F0AEB8F0BCBDE8004170B500F05AF869
:10490000097EFC3E00F007B881EA03014FF0000089
:1049100001F00041704781EA030100F099B8F0BC52
:10492000BDE800414FF0000021497047FFFDFBF951
:10493000F7F5F4F2F0EEEDEBE9E8E6E4E3E1E0DED2
:10494000DDDBDAD8D7D5D4D3D1D0CFCDCCCBCAC844
:10495000C7C6C5C4C2C1C0BFBEBDBCBBBAB9B8B76B
:10496000B6B5B4B3B2B1B0AFAEADACABAAA9A8A85E
:10497000A7A6A5A4A3A3A2A1A09F9F9E9D9C9C9B2C
:104980009A999998979796959594939392919190D7
:104990008F8F8E8E8D8C8C8B8B8A89898888878768
:1049A0008685858484838382828181800000FF07DD
:1049B0000000F87F0EF1020E2EF0030E5EF8046B7D
:1049C000364205D4012A43EB030515F5001F12D822
:1049D000012841EB010C1CF5001F0CD80ED14FEA49
:1049E000D17C15F5001F0CEB4C0C0CF1020C08BF30
:1049F0004CEBD37C04E04FF0080C01E04FEAD37C91
:104A00000CEB4C0526FA05F606F00706B6F1040C89
:104A100006D20EEB860CBDE870404CF0010C6047EE
:104A2000DFE80CF0090B02024FF000414FF00000EC
:104A3000A1F5002170BD19461046012851EB010473
:104A400018BFD4F5001484BF002001F0004170BDF0
:104A50000808A0F500114FEA3101704710B591EA3E
:104A6000030F48BF83F000433FF5ACAD841A71EBF0
:104A7000030C07D212198CF0004C43EB0C03001B03
:104A800061EB0C01DFF8A4E14FEA1154A4EB135CD5
:104A90001EEA430F18BF9EEA445F00F0B08023EA8D
:104AA0006E03524221EA0451C3EB6E0338BF5B1E12
:104AB000DCF1200E25D322FA0CFE10EB0E0043FA97
:104AC0000CFE41EB0E01CCF1200E03FA0EFE10EBB2
:104AD0000E0051F10001CCF1200E29D412FA0EF291
:104AE00001EB0451BDE8104058BF7047401C1CBF8B
:104AF000B2F1004F704700280CBF491C20F00100A4
:104B0000704712EB020E43EB030218BF4FF0010E89
:104B10004EEA4202ACF1200CDCF11E0E54D943FAED
:104B20000CFE10EB0E0051F1FF31CCF11E0ED5D56D
:104B30000EF1010E12FA0EFE404141EB010101EBB4
:104B4000445C5FEA5C5C10D910EBDE7001EB045151
:104B500038BFBEF1004FBDE8104018BF70470028B5
:104B60000CBF491C20F00100704730D24FEAD42C12
:104B700011F5001124F400641BD0B1FA81F20B3A54
:104B8000A41AA41ED2F12003914030FA03F3194372
:104B9000904001EBCC71002C01EB0451BDE81040BA
:104BA000A8BF704701F1C0414FF0000001F0004183
:104BB0007047B0FA80F310FA03F100D110BDE41A87
:104BC000173C4805C90AE4E701EB045110BD491040
:104BD00001EB0451BDE810404FEA300002E04FF015
:104BE000000170474A0008BF0042F8D0B2F5001F2C
:104BF00028BF704701F000414FF0000070479EEA67
:104C0000445F07D011EA5E0FBDE8104004BF0021E9
:104C100000207047BDE8104070B5FFF7CBFE00BF25
:104C200040DFF63E83F00041104670470000E0FF91
:104C300043004FEAD30C4FEA3C0C43401FBF4007F0
:104C40000CF1605113F0FE4F70471CF0006F03D160
:104C500000200CF0004170470CF0004343EA507014
:104C600010B540EACC0000F0C0F800BF0000009290
:104C70004FEA0001FFF7ECBE4FF000414FF000009B
:104C8000A1F500217047000041000B0ED3F19E02F8
:104C900008D950F400034FEA032323FA02F048BF77
:104CA0004042704710B500F0A0F800BF4992248040
:104CB000002070476FF0004282EA20007047000039
:104CC000B0FA80F310FA03F2C3F19D030AD0D905BC
:104CD00001EB1220530638BF704700F1010008BFF6
:104CE00020F00100704700004FF47F0C1CEAD01246
:104CF0001EBF1CEAD11392EA0C0F93EA0C0F00F0CE
:104D0000478090EA010F48BF42F480724FF0004C98
:104D10004CEA00204CEA012102EB0302A0FB011344
:104D2000A2F50002002918BF43F001035B0028BF71
:104D30004FEA330342EB22425FEA132C4CEBC250A2
:104D40002EBFBCEB436FB2F57C0F70474FEA036C8C
:104D5000BCF1004F08BF20F00100B2F57C0F38BF56
:104D600070470BD582F0FF0212F5803FC8BF704735
:104D700000F1C040D8BF00F00040704700F5000CC3
:104D80005FEA4C0C48BF7047B0F1C04000F073B808
:104D900090EA010F0CEAD11348BF42F480726245D9
:104DA00038BF634504D280EA010000F0004070473C
:104DB00010B500F01AF800BF8900013E00F007B8F6
:104DC00000F009B85FEA410C5FEA1C6C08D080EA89
:104DD000010000F050B85FEA400C5FEA1C6CF6D1AD
:104DE0004FF00040A0F5800070470EF1020E2EF04B
:104DF000030E5EF8044B244204D44FEA4102B2F1A0
:104E00007F4F11D84FEA4003B3F17F4F0CD80ED13A
:104E10004FEAD07CB2F17F4F0CEB4C0C0CF1020C42
:104E200008BF4CEBD17C04E04FF0080C01E04FEAE6
:104E3000D17C0CEB4C0324FA03F404F00704B4F126
:104E4000040C06D20EEB840CBDE810404CF0010CB3
:104E50006047DFE80CF0070802024FF00040A0F5C1
:104E6000800010BD0846420018BFD2F1807288BF92
:104E700000F0004010BDFF2141EAD050C00570474E
:104E8000FBF722BC010202030405060708090A0B0E
:104E90000C0D0E0F1010010202030405060708098D
:104EA0000A0B0C0D0E0F1010000000000000000097
:104EB00001020304060708090000000001020304C0
:104EC00000000000000000000000000000000000E2
:104ED0000000001010101010101000001010000042
:104EE0000012242448000000000000000000000020
:104EF0000000001212127E2424247E2424240000A8
:104F00000000083C4A4A48380C0A0A4A4A3C080849
:104F100000000044A4A8A8B0541A2A2A4A44000059
:104F200000000030484848506EA4949889760000EC
:104F30000060202040000000000000000000000091
:104F400000020408081010101010100808040200D5
:104F50000040201010080808080808101020400021
:104F6000000000001010D63838D6101000000000E5
:104F700000000000000808087F0808080000000082
:104F80000000000000000000000000006020204041
:104F900000000000000000007E0000000000000093
:104FA0000000000000000000000000006060000041
:104FB00000000204040408081010102020404000E3
:104FC000000000182442424242424242241800009B
:104FD000000000083808080808080808083E000013
:104FE0000000003C4242420204081020427E0000C1
:104FF0000000003C4242020418040242423C00000D
:10500000000000040C0C142424447F04041F00003E
:105010000000007E404040784402024244380000D4
:10502000000000182440405C62424242221C000002
:105030000000007E42040408081010101010000048
:105040000000003C4242422418244242423C0000FC
:105050000000003844424242463A0202241800004E
:1050600000000000000018180000000018180000E0
:1050700000000000000000100000000000101010F0
:105080000000000204081020402010080402000064
:105090000000000000007E00007E00000000000014
:1050A0000000004020100804020408102040000006
:1050B0000000003C42426204080808001818000082
:1050C00000000038445AAAAAAAAAAA5C423C0000DE
:1050D0000000001010182828243C444242E7000039
:1050E000000000F8444444784442424244F800003E
:1050F0000000003E424280808080804244380000B0
:10510000000000F8444242424242424244F8000059
:10511000000000FC424848784848404242FC0000F9
:10512000000000FC424848784848404040E0000009
:105130000000003C44448080808E84444438000059
:10514000000000E7424242427E42424242E7000003
:105150000000007C1010101010101010107C0000C7
:105160000000003E0808080808080808080888F039
:10517000000000EE444850705048484444EE00009F
:10518000000000E0404040404040404042FE0000FF
:10519000000000EE6C6C6C6C6C54545454D60000DF
:1051A000000000C7626252524A4A4A4646E2000084
:1051B0000000003844828282828282824438000069
:1051C000000000FC424242427C40404040E000007F
:1051D0000000003844828282828282B24C3806000B
:1051E000000000FC4242427C4848444442E3000044
:1051F0000000003E4242402018040242427C00006F
:10520000000000FE92101010101010101038000056
:10521000000000E74242424242424242423C000019
:10522000000000E7424244242428281810100000FF
:10523000000000D654545454546C282828280000E8
:10524000000000E7422424181818242442E7000034
:10525000000000EE44442828101010101038000000
:105260000000007E840408081020204242FC000058
:10527000001E1010101010101010101010101E0032
:10528000000040202020101010080804040402022E
:1052900000780808080808080808080808087800BE
:1052A00000182400000000000000000000000000C2
:1052B000000000000000000000000000000000FFEF
:1052C000006010000000000000000000000000006E
:1052D0000000000000000038440C34444C3600004C
:1052E00000000000C0404058644242426458000040
:1052F000000000000000001C22404040221C000072
:10530000000000000602023E42424242463B0000CC
:10531000000000000000003C42427E40423C000091
:10532000000000000C12107C10101010107C000007
:10533000000000000000003E444438403C42423C33
:1053400000000000C040405C6242424242E7000070
:10535000000000303000007010101010107C0000B1
:105360000000000C0C00001C040404040404447835
:1053700000000000C040404E4850704844EE00001D
:10538000000000107010101010101010107C0000A1
:1053900000000000000000FE4949494949ED0000B5
:1053A00000000000000000DC6242424242E70000D0
:1053B000000000000000003C42424242423C00002B
:1053C00000000000000000D864424242645840E0FF
:1053D000000000000000001A26424242261A02077E
:1053E00000000000000000EE3220202020F8000025
:1053F000000000000000003E42403C02427C0000F1
:10540000000000000010107C10101010120C0000A2
:1054100000000000000000C642424242463B00003D
:1054200000000000000000EE444428281010000096
:1054300000000000000000DB894A5A5424240000C8
:10544000000000000000007624181818246E0000E8
:1054500000000000000000E742242418181010602B
:10546000000000000000007E44081010227E0000B2
:1054700000030404040404040804040404040300F2
:10548000080808080808080808080808080808089C
:1054900000C0202020202020102020202020C0001C
:1054A000205A04000000000000000000000000007E
:1054B00004000008000000000000000200010000DD
:1054C0001000000002400000000000A000000000EA
:1054D00005400000000000C8000000000C40000073
:1054E0000000409C00000000194000000020BCBEED
:1054F0000000000034400000BFC91B8E0000000403
:10550000B5400000504BCFD06607E2CF010000004D
:105510006C4100003E8251AADFEEA734010000007A
:10552000D9420000DCB5A0E23A301F97FFFFFFFF31
:10553000B4450000FD25A0C8E9A3C14FFFFFFFFF50
:10554000FF3F00000000008000000000FF3F00005F
:1055500000000080000000009455000800000020BA
:105560003400000028010008C8550008340000205D
:10557000E4070000440100081C0000004300000094
:10558000F8FFFFFF0C0000000E0000000F000000FD
:105590002E000000000000000000000000000000DD
:1055A0000000000000000000CDCC4C3F01000000D6
:1055B00010000000000000000024F40000000000C3
:0855C0000000000000000000E3
:04000005080000ED02
:00000001FF
